{
  "_format": "hh-sol-artifact-1",
  "contractName": "Trade",
  "sourceName": "contracts/Trade.sol",
  "abi": [
    {
      "anonymous": false,
      "inputs": [
        {
          "indexed": true,
          "internalType": "uint256",
          "name": "orderId",
          "type": "uint256"
        },
        {
          "indexed": false,
          "internalType": "address",
          "name": "seller",
          "type": "address"
        },
        {
          "indexed": false,
          "internalType": "address",
          "name": "buyer",
          "type": "address"
        },
        {
          "indexed": false,
          "internalType": "uint256",
          "name": "price",
          "type": "uint256"
        },
        {
          "indexed": false,
          "internalType": "uint256",
          "name": "quantity",
          "type": "uint256"
        },
        {
          "indexed": false,
          "internalType": "uint256",
          "name": "saleTime",
          "type": "uint256"
        },
        {
          "indexed": false,
          "internalType": "uint256",
          "name": "buyTime",
          "type": "uint256"
        }
      ],
      "name": "Buy",
      "type": "event"
    },
    {
      "anonymous": false,
      "inputs": [
        {
          "indexed": false,
          "internalType": "uint8",
          "name": "version",
          "type": "uint8"
        }
      ],
      "name": "Initialized",
      "type": "event"
    },
    {
      "anonymous": false,
      "inputs": [
        {
          "indexed": true,
          "internalType": "uint256",
          "name": "orderId",
          "type": "uint256"
        },
        {
          "indexed": false,
          "internalType": "address",
          "name": "seller",
          "type": "address"
        },
        {
          "indexed": false,
          "internalType": "uint256",
          "name": "price",
          "type": "uint256"
        },
        {
          "indexed": false,
          "internalType": "uint256",
          "name": "quantity",
          "type": "uint256"
        },
        {
          "indexed": false,
          "internalType": "uint256",
          "name": "saleTime",
          "type": "uint256"
        }
      ],
      "name": "Sale",
      "type": "event"
    },
    {
      "inputs": [
        {
          "internalType": "address",
          "name": "owner_",
          "type": "address"
        }
      ],
      "name": "adminSetOwner",
      "outputs": [],
      "stateMutability": "nonpayable",
      "type": "function"
    },
    {
      "inputs": [
        {
          "internalType": "address",
          "name": "tokenAddress_",
          "type": "address"
        }
      ],
      "name": "adminSetTokenAddress",
      "outputs": [],
      "stateMutability": "nonpayable",
      "type": "function"
    },
    {
      "inputs": [
        {
          "internalType": "uint256",
          "name": "orderId_",
          "type": "uint256"
        }
      ],
      "name": "buy",
      "outputs": [],
      "stateMutability": "nonpayable",
      "type": "function"
    },
    {
      "inputs": [
        {
          "internalType": "uint256",
          "name": "orderId_",
          "type": "uint256"
        }
      ],
      "name": "getOrderInfoById",
      "outputs": [
        {
          "components": [
            {
              "internalType": "uint256",
              "name": "id",
              "type": "uint256"
            },
            {
              "internalType": "address",
              "name": "seller",
              "type": "address"
            },
            {
              "internalType": "address",
              "name": "buyer",
              "type": "address"
            },
            {
              "internalType": "uint256",
              "name": "price",
              "type": "uint256"
            },
            {
              "internalType": "uint256",
              "name": "quantity",
              "type": "uint256"
            },
            {
              "internalType": "bool",
              "name": "isDael",
              "type": "bool"
            },
            {
              "internalType": "uint256",
              "name": "saleTime",
              "type": "uint256"
            },
            {
              "internalType": "uint256",
              "name": "buyTime",
              "type": "uint256"
            }
          ],
          "internalType": "struct Trade.Order",
          "name": "",
          "type": "tuple"
        }
      ],
      "stateMutability": "view",
      "type": "function"
    },
    {
      "inputs": [],
      "name": "initialize",
      "outputs": [],
      "stateMutability": "nonpayable",
      "type": "function"
    },
    {
      "inputs": [
        {
          "internalType": "uint256",
          "name": "",
          "type": "uint256"
        }
      ],
      "name": "orderInfo",
      "outputs": [
        {
          "internalType": "uint256",
          "name": "id",
          "type": "uint256"
        },
        {
          "internalType": "address",
          "name": "seller",
          "type": "address"
        },
        {
          "internalType": "address",
          "name": "buyer",
          "type": "address"
        },
        {
          "internalType": "uint256",
          "name": "price",
          "type": "uint256"
        },
        {
          "internalType": "uint256",
          "name": "quantity",
          "type": "uint256"
        },
        {
          "internalType": "bool",
          "name": "isDael",
          "type": "bool"
        },
        {
          "internalType": "uint256",
          "name": "saleTime",
          "type": "uint256"
        },
        {
          "internalType": "uint256",
          "name": "buyTime",
          "type": "uint256"
        }
      ],
      "stateMutability": "view",
      "type": "function"
    },
    {
      "inputs": [
        {
          "internalType": "uint256",
          "name": "quantity",
          "type": "uint256"
        },
        {
          "internalType": "uint256",
          "name": "price",
          "type": "uint256"
        }
      ],
      "name": "sale",
      "outputs": [],
      "stateMutability": "nonpayable",
      "type": "function"
    },
    {
      "inputs": [],
      "name": "tokenAddress",
      "outputs": [
        {
          "internalType": "address",
          "name": "",
          "type": "address"
        }
      ],
      "stateMutability": "view",
      "type": "function"
    }
  ],
  "bytecode": "0x60806040526001805534801561001457600080fd5b50611562806100246000396000f3fe608060405234801561001057600080fd5b50600436106100885760003560e01c80638129fc1c1161005b5780638129fc1c1461012c578063824744dd146101365780639d76ea5814610152578063d96a094a1461017057610088565b80631c35f9621461008d578063559a89e0146100a95780635bef7212146100c55780636ab34a4a146100f5575b600080fd5b6100a760048036038101906100a29190610d33565b61018c565b005b6100c360048036038101906100be9190610dd1565b6104d4565b005b6100df60048036038101906100da9190610dfe565b6105a8565b6040516100ec9190610f06565b60405180910390f35b61010f600480360381019061010a9190610dfe565b6106cf565b604051610123989796959493929190610f4f565b60405180910390f35b610134610764565b005b610150600480360381019061014b9190610dd1565b6108e2565b005b61015a6109b6565b6040516101679190610fcd565b60405180910390f35b61018a60048036038101906101859190610dfe565b6109dc565b005b6000600260009054906101000a900473ffffffffffffffffffffffffffffffffffffffff1673ffffffffffffffffffffffffffffffffffffffff166370a08231336040518263ffffffff1660e01b81526004016101e99190610fcd565b602060405180830381865afa158015610206573d6000803e3d6000fd5b505050506040513d601f19601f8201168201806040525081019061022a9190610ffd565b90508281101561026f576040517f08c379a000000000000000000000000000000000000000000000000000000000815260040161026690611087565b60405180910390fd5b600260009054906101000a900473ffffffffffffffffffffffffffffffffffffffff1673ffffffffffffffffffffffffffffffffffffffff166323b872dd3330866040518463ffffffff1660e01b81526004016102ce939291906110a7565b6020604051808303816000875af11580156102ed573d6000803e3d6000fd5b505050506040513d601f19601f82011682018060405250810190610311919061110a565b5060405180610100016040528060015481526020013373ffffffffffffffffffffffffffffffffffffffff168152602001600073ffffffffffffffffffffffffffffffffffffffff16815260200183815260200184815260200160001515815260200142815260200160008152506004600060015481526020019081526020016000206000820151816000015560208201518160010160006101000a81548173ffffffffffffffffffffffffffffffffffffffff021916908373ffffffffffffffffffffffffffffffffffffffff16021790555060408201518160020160006101000a81548173ffffffffffffffffffffffffffffffffffffffff021916908373ffffffffffffffffffffffffffffffffffffffff160217905550606082015181600301556080820151816004015560a08201518160050160006101000a81548160ff02191690831515021790555060c0820151816006015560e082015181600701559050506001547fa9646de4555cf5a664323384c5a0a2668cd32f009d8db246c31b66a914c2d894338486426040516104af9493929190611137565b60405180910390a2600160008154809291906104ca906111ab565b9190505550505050565b3373ffffffffffffffffffffffffffffffffffffffff16600360009054906101000a900473ffffffffffffffffffffffffffffffffffffffff1673ffffffffffffffffffffffffffffffffffffffff1614610564576040517f08c379a000000000000000000000000000000000000000000000000000000000815260040161055b9061123f565b60405180910390fd5b80600260006101000a81548173ffffffffffffffffffffffffffffffffffffffff021916908373ffffffffffffffffffffffffffffffffffffffff16021790555050565b6105b0610c85565b6004600083815260200190815260200160002060405180610100016040529081600082015481526020016001820160009054906101000a900473ffffffffffffffffffffffffffffffffffffffff1673ffffffffffffffffffffffffffffffffffffffff1673ffffffffffffffffffffffffffffffffffffffff1681526020016002820160009054906101000a900473ffffffffffffffffffffffffffffffffffffffff1673ffffffffffffffffffffffffffffffffffffffff1673ffffffffffffffffffffffffffffffffffffffff16815260200160038201548152602001600482015481526020016005820160009054906101000a900460ff16151515158152602001600682015481526020016007820154815250509050919050565b60046020528060005260406000206000915090508060000154908060010160009054906101000a900473ffffffffffffffffffffffffffffffffffffffff16908060020160009054906101000a900473ffffffffffffffffffffffffffffffffffffffff16908060030154908060040154908060050160009054906101000a900460ff16908060060154908060070154905088565b60008060019054906101000a900460ff161590508080156107955750600160008054906101000a900460ff1660ff16105b806107c257506107a430610c62565b1580156107c15750600160008054906101000a900460ff1660ff16145b5b610801576040517f08c379a00000000000000000000000000000000000000000000000000000000081526004016107f8906112d1565b60405180910390fd5b60016000806101000a81548160ff021916908360ff160217905550801561083e576001600060016101000a81548160ff0219169083151502179055505b6001808190555033600360006101000a81548173ffffffffffffffffffffffffffffffffffffffff021916908373ffffffffffffffffffffffffffffffffffffffff16021790555080156108df5760008060016101000a81548160ff0219169083151502179055507f7f26b83ff96e1f2b6a682f133852f6798a09c465da95921460cefb384740249860016040516108d69190611343565b60405180910390a15b50565b3373ffffffffffffffffffffffffffffffffffffffff16600360009054906101000a900473ffffffffffffffffffffffffffffffffffffffff1673ffffffffffffffffffffffffffffffffffffffff1614610972576040517f08c379a00000000000000000000000000000000000000000000000000000000081526004016109699061123f565b60405180910390fd5b80600360006101000a81548173ffffffffffffffffffffffffffffffffffffffff021916908373ffffffffffffffffffffffffffffffffffffffff16021790555050565b600260009054906101000a900473ffffffffffffffffffffffffffffffffffffffff1681565b60006004600083815260200190815260200160002090508060050160009054906101000a900460ff1615610a45576040517f08c379a0000000000000000000000000000000000000000000000000000000008152600401610a3c906113aa565b60405180910390fd5b6000816006015403610a8c576040517f08c379a0000000000000000000000000000000000000000000000000000000008152600401610a8390611416565b60405180910390fd5b60008160040154905060008260060154905060008360030154905060008460010160009054906101000a900473ffffffffffffffffffffffffffffffffffffffff169050600260009054906101000a900473ffffffffffffffffffffffffffffffffffffffff1673ffffffffffffffffffffffffffffffffffffffff1663a9059cbb33866040518363ffffffff1660e01b8152600401610b2d929190611436565b6020604051808303816000875af1158015610b4c573d6000803e3d6000fd5b505050506040513d601f19601f82011682018060405250810190610b70919061110a565b610baf576040517f08c379a0000000000000000000000000000000000000000000000000000000008152600401610ba6906114ab565b60405180910390fd5b338560020160006101000a81548173ffffffffffffffffffffffffffffffffffffffff021916908373ffffffffffffffffffffffffffffffffffffffff16021790555042856007018190555060018560050160006101000a81548160ff021916908315150217905550857fb2b1af4e7bd168298631b9bd6d83e147029d0fa009f109d0160aadc82823b299823385888842604051610c52969594939291906114cb565b60405180910390a2505050505050565b6000808273ffffffffffffffffffffffffffffffffffffffff163b119050919050565b60405180610100016040528060008152602001600073ffffffffffffffffffffffffffffffffffffffff168152602001600073ffffffffffffffffffffffffffffffffffffffff168152602001600081526020016000815260200160001515815260200160008152602001600081525090565b600080fd5b6000819050919050565b610d1081610cfd565b8114610d1b57600080fd5b50565b600081359050610d2d81610d07565b92915050565b60008060408385031215610d4a57610d49610cf8565b5b6000610d5885828601610d1e565b9250506020610d6985828601610d1e565b9150509250929050565b600073ffffffffffffffffffffffffffffffffffffffff82169050919050565b6000610d9e82610d73565b9050919050565b610dae81610d93565b8114610db957600080fd5b50565b600081359050610dcb81610da5565b92915050565b600060208284031215610de757610de6610cf8565b5b6000610df584828501610dbc565b91505092915050565b600060208284031215610e1457610e13610cf8565b5b6000610e2284828501610d1e565b91505092915050565b610e3481610cfd565b82525050565b610e4381610d93565b82525050565b60008115159050919050565b610e5e81610e49565b82525050565b61010082016000820151610e7b6000850182610e2b565b506020820151610e8e6020850182610e3a565b506040820151610ea16040850182610e3a565b506060820151610eb46060850182610e2b565b506080820151610ec76080850182610e2b565b5060a0820151610eda60a0850182610e55565b5060c0820151610eed60c0850182610e2b565b5060e0820151610f0060e0850182610e2b565b50505050565b600061010082019050610f1c6000830184610e64565b92915050565b610f2b81610cfd565b82525050565b610f3a81610d93565b82525050565b610f4981610e49565b82525050565b600061010082019050610f65600083018b610f22565b610f72602083018a610f31565b610f7f6040830189610f31565b610f8c6060830188610f22565b610f996080830187610f22565b610fa660a0830186610f40565b610fb360c0830185610f22565b610fc060e0830184610f22565b9998505050505050505050565b6000602082019050610fe26000830184610f31565b92915050565b600081519050610ff781610d07565b92915050565b60006020828403121561101357611012610cf8565b5b600061102184828501610fe8565b91505092915050565b600082825260208201905092915050565b7f496e73756666696369656e742062616c616e6365000000000000000000000000600082015250565b600061107160148361102a565b915061107c8261103b565b602082019050919050565b600060208201905081810360008301526110a081611064565b9050919050565b60006060820190506110bc6000830186610f31565b6110c96020830185610f31565b6110d66040830184610f22565b949350505050565b6110e781610e49565b81146110f257600080fd5b50565b600081519050611104816110de565b92915050565b6000602082840312156111205761111f610cf8565b5b600061112e848285016110f5565b91505092915050565b600060808201905061114c6000830187610f31565b6111596020830186610f22565b6111666040830185610f22565b6111736060830184610f22565b95945050505050565b7f4e487b7100000000000000000000000000000000000000000000000000000000600052601160045260246000fd5b60006111b682610cfd565b91507fffffffffffffffffffffffffffffffffffffffffffffffffffffffffffffffff82036111e8576111e761117c565b5b600182019050919050565b7f4f776e61626c653a2063616c6c6572206973206e6f7420746865206f776e6572600082015250565b600061122960208361102a565b9150611234826111f3565b602082019050919050565b600060208201905081810360008301526112588161121c565b9050919050565b7f496e697469616c697a61626c653a20636f6e747261637420697320616c72656160008201527f647920696e697469616c697a6564000000000000000000000000000000000000602082015250565b60006112bb602e8361102a565b91506112c68261125f565b604082019050919050565b600060208201905081810360008301526112ea816112ae565b9050919050565b6000819050919050565b600060ff82169050919050565b6000819050919050565b600061132d611328611323846112f1565b611308565b6112fb565b9050919050565b61133d81611312565b82525050565b60006020820190506113586000830184611334565b92915050565b7f6f7264657220737461747573206572726f720000000000000000000000000000600082015250565b600061139460128361102a565b915061139f8261135e565b602082019050919050565b600060208201905081810360008301526113c381611387565b9050919050565b7f6f72646572206964206572726f72000000000000000000000000000000000000600082015250565b6000611400600e8361102a565b915061140b826113ca565b602082019050919050565b6000602082019050818103600083015261142f816113f3565b9050919050565b600060408201905061144b6000830185610f31565b6114586020830184610f22565b9392505050565b7f736572766572206572726f720000000000000000000000000000000000000000600082015250565b6000611495600c8361102a565b91506114a08261145f565b602082019050919050565b600060208201905081810360008301526114c481611488565b9050919050565b600060c0820190506114e06000830189610f31565b6114ed6020830188610f31565b6114fa6040830187610f22565b6115076060830186610f22565b6115146080830185610f22565b61152160a0830184610f22565b97965050505050505056fea26469706673582212203980c775a6100e5f47219db0685b9652b3fd864c5f39151680d9c45810371c2664736f6c634300080d0033",
  "linkReferences": {},
  "deployedLinkReferences": {}
}